:020000040800F2
:10000000C8060020B50100086D0F0008450E000865
:10001000690F000871020008391000080000000094
:10002000000000000000000000000000750F000844
:100030007502000800000000710F0008790F000829
:10004000CF010008CF010008CF010008CF01000850
:10005000CF010008CF01000879020008CF01000895
:10006000CF010008CF010008CF010008CF01000830
:10007000CF010008CF010008CF010008CF01000820
:10008000CF010008CF010008CF010008CF01000810
:10009000CF010008CF010008CF010008CF01000800
:1000A000CF010008CF010008CF010008CF010008F0
:1000B000CF010008CF010008CF010008CF010008E0
:1000C000CF010008CF010008CF010008CF010008D0
:1000D000CF010008CF010008CF010008CF010008C0
:1000E000B9020008CF010008CF01000800F002F8B3
:1000F00000F050F814A696E8000CB244B344DA4578
:1001000001D100F047F8BAE80F000FA696E83000DA
:10011000A5EB040504EB0607AAEB0704A7F101070A
:100120004FEA15154FEA3414A4F10104AC4201D38F
:1001300000F030F813F0010F18BFFB1A43F0010371
:1001400000F001F8DBE71847880F0000A80F000057
:10015000103A24BF78C878C1FAD8520724BF30C8F3
:1001600030C144BF04680C60704700007047000055
:100170000023002400250026103A28BF78C1FBD8B0
:10018000520728BF30C148BF0B6070471FB51FBD65
:1001900010B510BD00F031F81146FFF7F7FF00F081
:1001A0004DFF00F04FF803B4FFF7F2FF03BC00F07F
:1001B00057F800000948804709480047FEE7FEE776
:1001C000FEE7FEE7FEE7FEE7FEE7FEE7FEE7FEE707
:1001D00004480549054A064B7047000035100008E1
:1001E000ED000008C8000020C8060020C80200205A
:1001F000C8020020704770477047754600F02CF821
:10020000AE4605006946534620F00700854618B003
:1002100020B5FFF7DDFFBDE820404FF000064FF0AE
:1002200000074FF000084FF0000BAC46ACE8C009E7
:10023000ACE8C009ACE8C009ACE8C00921F007018E
:100240008D46704710B50446AFF300802046BDE8E8
:100250001040FFF7A8BF00000048704710000020C2
:1002600001491820ABBEFEE72600020070470000DF
:10027000FEE700007047000010B540F21444C4F2DD
:1002800001042068C00708BF10BD01202060642061
:1002900000F01CF840F60040C4F20100012100F01B
:1002A00041F908B110BD00BF04F57B702021BDE805
:1002B000104000F03DB900004FF4005000F01CB8B1
:1002C000EFF3108072B600BFFEE70000B0B5044641
:1002D00000F03CF9054640F20000C2F20000007850
:1002E000611C18BF044400BF00F030F9401BA0425D
:1002F000FAD3B0BD7047000040F21441C4F20101CE
:100300000A68024214BF08607047FFF7F3BF00009D
:100310002DE9F04F82B00E68002E00F0FF8040F211
:100320000C4C40F2004E41F20042C4F2010CC4F207
:10033000010EC4F201020427002401234FF0000A39
:100340004FF00009904208BF0327009749E000BF23
:1003500041F20002C4F20102009F904208BF02274E
:1003600004F00C030F229A402BEA020207FA03F36F
:100370004FEA9A051A4346F825204E68F203DEF844
:10038000002054BF22EA080242EA0802CEF8002008
:10039000DEF80420B30354BF22EA080242EA08024E
:1003A000CEF80420F302DEF8082054BF22EA080247
:1003B00042EA0802B302CEF80820DCF800204FF031
:1003C000010354BF22EA080242EA0802CCF80020E6
:1003D0000E680AF1010A36FA0AF204F1040400F088
:1003E0009D8003FA0AFB16EA0B08F1D04E684FF61F
:1003F000FF72C1F21002964212DC122E56D8DFE8CC
:1004000006F0350B4D4955555555555555555555CE
:1004100055555545510000BFD1F80C9046E000BF3E
:100420004FF6FF72C1F2210296420FDC0022C1F2A8
:10043000110296421AD00022C1F21202964215D041
:100440000022C1F22102964210D02FE00022C1F218
:10045000220296420AD00022C1F23102964205D011
:100460000022C1F23202964220D100BF8A684AB10E
:10047000012A14BFC0F814B0C0F810B04FF008093A
:1004800014E000BF4FF0040910E000BFCA6802F199
:1004900004090BE04FF0000908E000BFCA6802F150
:1004A000080903E0CA6802F10C0900BF02462646AB
:1004B000B8F5807F24BF0432203E17680F25B54071
:1004C00027EA050509FA06F635431560CA79D2060A
:1004D0007FF57EAF41F21803C4F202031A68AEF54D
:1004E0007E7642F001021A601A6802F0010201925F
:1004F000019A2AF0030256F802B040F60002C4F254
:100500000102904208D040F60042C4F2010290423B
:100510007FF41EAF012723E7002721E702B0BDE8E3
:10052000F08F00008068084018BF0120704700006D
:10053000C26802EA0103914341EA03410161704745
:10054000002A08BF090401617047000040F2C000A2
:10055000C2F200000068704740F2000040F2C001A3
:10056000C2F20000C2F2000100780A68104408607C
:100570007047000080B542F20000C4F2020001683A
:1005800041F010010160032000F08CF8002000F021
:1005900005F800F027F8002080BD000070B540F29B
:1005A0000006C2F2000640F208013278C2F20001F1
:1005B0004FF47A730968B3FBF2F20446B1FBF2F12F
:1005C000084600F085FB0F2C4FF0010508D838B91C
:1005D0004FF0FF3021460022002500F037F874600C
:1005E000284670BD82B041F21800C4F202000168D2
:1005F000022241F001010160016801F00101019155
:100600000199416841F080514160406800F080509C
:10061000009000980420C4F20100016862F31A619E
:10062000016002B070470000002848BF704700F02A
:100630001F01012202FA01F11C2202EAD0004EF24F
:100640000012CEF2000281507047000010B54EF645
:100650000C5CCEF2000CDCF80030C3F3022E8EF0FE
:100660000704042C28BF0424BEF103034FF0FF3E0F
:100670000EFA04F438BF0023A14399400EFA03F3A5
:100680009A43114300F00F0200F160430901043A5C
:1006900003F564436244002848BF02F10C0319705B
:1006A00010BD00004EF60C51CEF200010A684FF664
:1006B000FF031A4060F30A2242F0806040F0FD70B0
:1006C00008607047002804BF012070472DE9F043FF
:1006D00081B042F20008C4F202080446D8F80000D3
:1006E0000D4600F0070088420CD2D8F8000020F038
:1006F00007002843C8F80000D8F8000000F0070001
:10070000A8426CD1206841F204098107C4F20209B1
:1007100017D5410705D5D9F8001041F4E061C9F8B3
:100720000010010705D5D9F8001041F46051C9F84F
:100730000010D9F80010A26821F0F0011143C9F8A7
:100740000010C00742D1D8F8000000F00700A8420E
:100750000CD9D8F8000020F007002843C8F80000A2
:10076000D8F8000000F00700A84238D120684107FF
:1007700007D5D9F80010E26821F4E0611143C9F807
:100780000010000708D5D9F80000216920F4605056
:1007900040EAC100C9F80000D9F8002002F00C00BE
:1007A000082841F20020C0F27A004DD141F2C00386
:1007B000C2F38341C0F60003595CD20338D440F63B
:1007C0000010C0F23D0048433EE000BF606859F8A9
:1007D000041C022808D0012826D1890306D4012050
:1007E00001B0BDE8F08300BF8901F8D5D9F8001049
:1007F00021F003010843C9F80000FFF7A7FE0646F1
:1008000041F28837D9F80000616800F00C00B0EBC5
:10081000810F98D0FFF79AFE801BB842F2D90320CF
:1008200001B0BDE8F08300BF8907D8D5DEE700BF7F
:10083000D9F8002041F2A603C2F34042C0F60003FB
:100840009A5C4843B0FBF2F0D9F8001041F2A802DC
:10085000C1F30311C0F60002515C40F2080220FA15
:1008600001F140F20400C2F200000068C2F200028E
:100870001160FFF793FE002001B0BDE8F083000097
:1008800040F2080041F20401C2F20000C4F2020189
:100890000068096841F2B802C1F30221C0F6000203
:1008A000515CC8407047000040F2080041F204016A
:1008B000C2F20000C4F202010068096841F2B80205
:1008C000C1F3C221C0F60002515CC840704700006D
:1008D000002804BF012070472DE9F04182B0044692
:1008E000007841F20006C007C4F202060CD070681E
:1008F00000F00C00042840F081803068800303D5AC
:100900006068002800F04681207880071BD5706859
:1009100010F00C0F09D0706800F00C00082840F0AF
:1009200087807068C00300F183803068800703D53A
:100930002069012840F02E813068616920F0F800BC
:1009400040EAC10030602078000713D420784007C7
:100950002CD4E569002D00F01881706800F00C00BF
:10096000082840F0A780012D40F00481012002B04A
:10097000BDE8F081A069002800F084800020C4F266
:1009800042200121C0F88014FFF7E0FD054600BFBA
:10099000706A800700F1B280FFF7D8FD401B022883
:1009A000F6D9032002B0BDE8F08100BFF0695FEA2C
:1009B000C00808D4F06940F08050F061F06900F0A0
:1009C00080500090009847F20007C4F20007386892
:1009D000C00549D4386840F480703860FFF7B6FD30
:1009E000054600BF3868C0053ED4FFF7AFFD401B89
:1009F0006428F7D9032002B0BDE8F081706800F0E8
:100A00000C00082803D17068C0033FF576AF616819
:100A10003068002900F00C81B1F5A02F00F00081B2
:100A2000B1F5803F40F01A8140F480301CE100BFF6
:100A30002069002840F20000C4F2422000F08880C3
:100A400001210160FFF782FD054600BF3068800785
:100A50003FF572AFFFF77AFD401B0228F6D903205D
:100A600002B0BDE8F08100BFE168306A002900F003
:100A70009D80052900F09280012940F0AF8040F070
:100A80000100B1E00020C4F242200021C0F880142F
:100A9000FFF75CFD054600BF706A80077FF556AF23
:100AA000FFF754FD401B0228F6D9032002B0BDE831
:100AB000F08100BF0027C4F2422700203866FFF70C
:100AC00045FD022D05460DD13068800140F1DE80E4
:100AD000FFF73CFD401B02284FF00300F4D902B0A1
:100AE000BDE8F081306880014FD5FFF72FFD401B36
:100AF00002284FF00300F5D9F1E700BF40F20800EB
:100B0000C2F20000006844F6D351C1F26201A0FBBA
:100B10000101480A019000BF00BF0198411E002852
:100B200001913FF413AF00BF0198411E00280191CD
:100B30003FF40CAF00BF0198411E002801913FF423
:100B400005AF00BF0198411E00280191E4D1FDE6E8
:100B500000210160FFF7FAFC054600BF30688007FE
:100B60007FF5F1AEFFF7F2FC401B02284FF00300C7
:100B7000F4D9B4E77068216A00F480328A4209D15E
:100B8000616A00F47010884204D1002002B0BDE810
:100B9000F08100BF012002B0BDE8F08140F0040008
:100BA0003062306A40F001001EE000BF20F001001A
:100BB0003062306A20F004003062FFF7C7FC05465F
:100BC00041F28837306A800720D5FFF7BFFC401B11
:100BD000B8424FF00300F5D981E700BF20F00100D3
:100BE0003062306A20F004003062FFF7AFFC054647
:100BF00041F28837306A800708D4FFF7A7FC401B12
:100C0000B842F7D9032002B0BDE8F081B8F1000F77
:100C10003FF59FAEF06920F08050F06199E600BF8B
:100C200040F480203060306840F480301CE000BF29
:100C300020F480303060306820F480203060FFF78E
:100C400085FC0546306880037FF55EAEFFF77EFCCD
:100C5000401B64284FF00300F4D940E720F48030B3
:100C60003060306820F480203060FFF76FFC05466C
:100C7000306880033FF548AEFFF768FC401B6428EE
:100C8000F6D9032002B0BDE8F08100BF206AB0F5BC
:100C9000803F05D17168A26821F400311143716071
:100CA0007168626A21F47411114308437060012075
:100CB0003866FFF74BFC0446306880013FF565AFAE
:100CC000FFF744FC001B02284FF00300F4D906E7AD
:100CD000411E0020B0EB116F1CBF012070474EF287
:100CE0001002CEF2000251604EF62351CEF2000106
:100CF000F0230B700721906011607047002804BF3B
:100D00000120704710B5044690F83D0028B9002036
:100D100084F83C00204600F061F8242084F83D006F
:100D20002068D4E90212C36823F40053C360036946
:100D300023F440531A430261D4E904231143C268E7
:100D4000194341F20C639A431143C1604169A2699E
:100D500021F44071114343F60002C4F201029042B3
:100D6000416103D0FFF78CFD02E000BFFFF79CFD5F
:100D7000D4E90023192148439900B0FBF1F048F26F
:100D80001F5CC5F2EB1CA0FB0C314FF69C734909AC
:100D9000C0F6FF7301FB0300322303EB0010A0FB3E
:100DA0000C03F02000EA531000EB0110C3F34311D1
:100DB000084490601069202120F49040106150692F
:100DC00020F02A005061D06840F40050D06000202C
:100DD000206484F83D1084F83E1010BD80B586B0C4
:100DE000016844F20040C4F2000081424FF000016B
:100DF000CDE90411CDE9021102D006B080BD00BFDB
:100E000041F21801C4F202014A6800F5444042F47C
:100E100000324A604A6802F400320192019A0A687C
:100E200042F004020A60096801F00401019101998D
:100E30000C21029102210391059102A9FFF768FAA2
:100E400006B080BDFEE700002DE9F04385B0002626
:100E500041F21800CDE90366CDE90166C4F2020053
:100E6000016840F6000441F0100101600168C4F21D
:100E7000010401F01001009100990168002241F085
:100E80002001016001684FF0200801F0200100916D
:100E90000099016841F004010160016801F004015A
:100EA00000910099016841F008010160006820216B
:100EB00000F00800009000982046FFF741FB4FF437
:100EC000005040F2000901AD0190C1F2110904F592
:100ED00000602946CDE90296FFF71AFA02200127A1
:100EE000049020462946CDF80480CDE90276FFF72C
:100EF0000FFA09F58010CDE9020604F58060294655
:100F00000197FFF705FA282000210022FFF79EFB3A
:100F10002820FFF789FB062002210022FFF796FB1D
:100F20000620FFF781FB05B0BDE8F08380B540F2F5
:100F30007C0044F20041C2F20000C4F20001002330
:100F40004FF00C0C4FF4E13280E80E00C0E903339F
:100F5000C0E905C3C361FFF7D1FE002808BF80BD0B
:100F6000BDE88040FFF7ACB9FEE70000FEE70000F7
:100F7000704700007047000040F27000C2F20000AD
:100F800001680131B1F57A7F016038BFFFF7E4BA3B
:100F900080B544F6D353C1F26203A1FB0332D0F80B
:100FA00008C092094FF47A7302FB13110CF1010C83
:100FB000C0F808C00160816848F6890CC8F6880C42
:100FC000A1FB0C13416840F20C0E01EB5311416080
:100FD0008168C2F2000EA1FB0C3253091B01A3EB86
:100FE0005212A1EB820181604168DEF80030A1FB62
:100FF0000C1203EB5212CEF800204268A2FB0C3117
:101000004B091B01A3EB5111A2EB81014160DEF8FA
:1010100000004AF6AB21CAF6AA21A0FB0112110971
:1010200001EB4101A0EBC100CEF80000BDE880401B
:10103000FFF792BA70470000FEE7000090B0FFF79C
:1010400099FA00240120CDE90B44CDE909440A9026
:1010500010200B904FF4601002250F9006A8CDE9E8
:1010600007440695CDE90D54FFF732FC20B1EFF3AC
:10107000108072B6FEE700BF0F20CDE901054FF4E6
:101080008060CDE9040401A802210394FFF71AFB54
:1010900020B1EFF3108072B6FEE700BFFFF7D4FE79
:1010A000FFF744FFFEE7010200000000000000001F
:1010B00001020304060708090000000001020304FE
:1010C00002030405060708090A0B0C0D0E0F101089
:1010D000F01000080000002010000000500100087F
:1010E0000011000810000020B80600007001000880
:1010F00001000000100000000024F4000C000000BB
:04000005080000ED02
:00000001FF
